:1000000004308A00E52C00000C10CC32613B6510F6
:1000100074346510F33161366505E536703A791749
:100020002E000C10D430F23220226F3765000C10F5
:10003000D232F332743A693767172E008C2BE534CD
:100040006734741D0A102533A033F230ED390000F7
:100050008C2BE5346734741D0A104539F237720071
:100060004B30840083130008031943280630F8003E
:10007000F701F70B3928F80B38287B30F700F70B1E
:100080003F28800B36280800520EF039F7000F3059
:10009000060577048600000006140230F700F70B0F
:1000A0004F2852280000061008000608F700060E28
:1000B0000F39F80008008316061086100611831207
:1000C00086100F3083160605F03886008312061559
:1000D00000000614000055207808D2000610000029
:1000E000061472287328000055207808D1000610E5
:1000F0000F308316060586008312520EF700F0308B
:10010000F70577085104F8007808D100D11B612861
:100110004F1C86104F1886140000061100000610B0
:10012000500ED1000F30D1055108D20044205008A4
:100130000F39D100D200442008002830BA000C301A
:10014000BB000130BC000630BD0006108610061151
:100150000F308316060586000610861006110F3034
:100160008312CB0030200130B9003908033C031C56
:10017000C1280330D20044200530CB003020B90A1A
:10018000B5280230D20044200530CB003020B90120
:100190003908033C031CD8283A30390784008313FC
:1001A0000008BE00CF013E08D0005B20B90AC82875
:1001B0008A110A12FB2C4C0BDE28E1284030CD00BE
:1001C000E228CD0101304B02CD074D088038CE002A
:1001D000CF014E08D0005B2008004A08073A0319F7
:1001E000FB280B3A03190029063A03190829023A99
:1001F00003190E2913290130CB00CC00DB2018296C
:10020000CF010130D0005B200230CB003020182914
:100210000130CB000230CC00DB201829CF01103098
:10022000D0005B2018290130CF004A08D0005B20A5
:1002300008000B08B9008B13831603178C170C14D6
:100240000000000083120313B91B8B1703170C085F
:100250007F3903196D290313B90003170D08031320
:10026000BA0003170F080313BB003908CA00ED20BA
:100270003A0803178D0003133B0803178F0003137D
:100280000B08BC008B13831603178C170C1400008B
:10029000000083120313BC1B8B1703170C0D0E0DEC
:1002A0007F3903196D290313B90003170D080313D0
:1002B000BA0003170F080313BB003908CA00ED206A
:1002C0003A0803178D0003133B0803178F008D0AAC
:1002D00003198F0A031319290317031308000714BE
:1002E000241024088316870083128710A410240882
:1002F000831687008312BC01BB01BA01B901241423
:10030000240883168700831207187F29BD013D0842
:10031000173C031CAD298714A410240883168700FA
:1003200003108312B90DBA0DBB0DBC0D8710A410BC
:100330002408831687008312241424088316870058
:100340008312071CAB290130B9070318BA0A031935
:10035000BB0A0319BC0ABD0A87298714A410240804
:100360008316870080308312BB068710A4102408F0
:100370008316870083123908F7003A08F8003B0813
:10038000F9003C08FA000800B630F700FA01F9015C
:10039000F80139083A043B043C04031DD129F70154
:1003A000DE290310F81BDD29B90DBA0DBB0DBC0DFC
:1003B000FA0DF90DF80DF70BD129F81308003908DB
:1003C0000319A42AC5003D080319A42AC502031C69
:1003D000EE297F30C5070318A42AF4298130C5020D
:1003E000031CA42A0319A42A4508F700F801F901FF
:1003F000FA01C4013A08C300C3173B08C2003C0815
:10040000C1001930C5004008C1020318172A013085
:10041000C2020318172AC3020318172AC4020318BA
:10042000172AC40AC30AC20A4008C107492A3F085A
:10043000C2020318322A0130C3020318322AC4024E
:100440000318322AC40AC30A3F08C2074008C1077A
:10045000031C492AC20A031D492AC30A031D492A4B
:10046000C40A492A3E088038C3020318482A0130CA
:10047000C4020318482AC40A3E088038C3073F084C
:10048000C207031C262AC30A031D262AC40A262AD9
:100490007A14C50B4C2A572A0310C10DC20DC30D87
:1004A000C40D0310FA0DF90DF80DC60D032A461CF4
:1004B0005F2A0310F80CF90CFA0CC60C622AF70339
:1004C0000319A42AC61B8B2A0310C10DC20DC30D2C
:1004D000C40D4008C1020318772A0130C202031874
:1004E000772AC3020318772AC402031C9A2A3F08FA
:1004F000C2020318822A0130C3020318822AC402EE
:10050000031C9A2A3E088038C30203188B2A013044
:10051000C402031C9A2AFA0A031D9A2AF90A031D27
:100520009A2AF80A031D9A2AF70A0319A42AF80C32
:10053000F90CFA0C3A08C5003E08C506C51FA22AE8
:10054000F817A82AF813A82AF701F801F901FA0107
:1005500008003E08C5004208C506C51FB42A03119D
:100560000310BE1B0314E72A3E08C5004108C6005D
:100570003D08C6020319C22AC51FE72A0308013A2B
:100580008300E72A4208C6003E08C6020319CE2AA5
:10059000C51FE72A0308013A8300E72A4308C6007B
:1005A0003F08C6020319DA2AC51FE72A0308013AE1
:1005B0008300E72A4408C6004008C6020319E62A59
:1005C000C51FE72A0308013A8300E72A03108A11AE
:1005D0000A120B2E0B08BE008B13831603178C1701
:1005E0000C140000000083120313BE1B8B170318AA
:1005F000212B03170C087F390313BE0003170D08C6
:100600000313BF0003170F080313C0003E08CA00FE
:10061000ED203F0803178D000313400803178F00D8
:1006200003130B08C1008B13831603178C170C14CC
:100630000000000083120313C11B8B17BD0B212B7D
:10064000402B03170C0D0E0D7F390313BE0003174B
:100650000D080313BF0003170F080313C0003E0863
:10066000CA00ED203F0803178D000313400803174D
:100670008F008D0A03198F0A03100313BD0BEA2A9A
:1006800008008318462B523084008313F701F801C9
:10069000F901FA01D201D301D401D5015108500466
:1006A0004F044E040319842B2030D6000310CA0DCA
:1006B000CB0DCC0DCD0DD20DD30DD40DD50D5108D4
:1006C0005502031D6D2B50085402031D6D2B4F085E
:1006D0005302031D6D2B4E085202031C7E2B4E0845
:1006E000D2024F08031C4F0FD3025008031C500FB7
:1006F000D4025108031C510FD5020314F70DF80D55
:10070000F90DFA0DD60B562B52088000840A5308B7
:100710008000840A54088000840A5508800008007C
:100720000408C2004108C4000319222C4008CD006F
:100730003F08CC003E08CB003D08CA00D101D001E3
:100740002030CF008230CE004A080319142CD2008A
:100750004E080319142CD2070318B52B7F30D20290
:10076000031C142C0319142CB92B8130D207031845
:10077000142C5208F700F801F901FA014B08D600D1
:10078000D6174C08D5004D08D4001830D200D3013C
:10079000541CE22B5108FA07031CD42BF90A031D41
:1007A000D42BF80A0319D3175008F907031CDB2BC5
:1007B000F80A0319D3174F08CC00CC174C08F807D8
:1007C0000318D317D30DF80CF90CFA0CD60CD50C72
:1007D000D40C0310D20BC72B0130F7070318142CCD
:1007E000F81BF92BD60DFA0DF90DF80DF7030319C7
:1007F000142CD61F0A2CFA0A031D0A2CF90A031D11
:100800000A2CF80A031D0A2CF80CF90CFA0CF70A4A
:100810000319142C4B08D3004F08D306D31F122CF6
:10082000F817182CF813182CF701F801F901FA0140
:100830007A08C0007908BF007808BE007708BD00BC
:10084000C40B962B4008CD003F08CC003E08CB00DF
:100850003D08CA004A08B63CCA00FA014B08CE005F
:10086000CB170310CB0CCC0CCD0CFA0CF90CF80CFC
:10087000F70CCA0B312CCE1F482CF709F809F909DF
:10088000FA09F70A0319F80A0319F90A0319FA0A07
:100890007A08C0007908BF007808BE007708BD005C
:1008A000C01F5F2CC203C216BD09BE09BF09C00923
:1008B000BD0A0319BE0A0319BF0A0319C00A3B3057
:1008C000C9009A30C800CA30C700C6010A30C40047
:1008D00041080319C20A83143D3084008313400881
:1008E000CD003F08CC003E08CB003D08CA004908B7
:1008F000D1004808D0004708CF004608CE00412369
:100900007808F708031D972C410A44020319972C15
:1009100042080319992C0F3944020319912C03182A
:10092000C92CC21BC92C421B992C2030C52C20304D
:10093000C205C21EA72CC2124108031DC2037708BC
:10094000C2002D30CA00ED204208F700C201410864
:100950004402031DB52C7708C2002E30CA00ED20DA
:100960004208F7002030C20500303030C21EC52CCE
:10097000C2124108031DC2037708C2002D30CA000D
:10098000ED204208F700C2013030F7077708CA00AF
:10099000ED2083104908CD004808CC004708CB0063
:1009A0004608CA00D101D001CF010A30CE00412350
:1009B0007A08C9007908C8007808C7007708C60017
:1009C000C40B6B2C8A110A123F2E03081F398300B7
:1009D0003330A300A2001030A1008430A000FF300B
:1009E000A40083161F149F141F159F1107309C002D
:1009F000831383129D28043003178D0000308F006D
:100A0000031319210A30B900FA30CB003020B90B9A
:100A1000042DA801A701A601A501AC01AB01AA0103
:100A2000A901B001AF01AE01AD016F217A08AC00A0
:100A30007908AB007808AA007708A9006F217A0826
:100A4000A8007908A7007808A6007708A500241553
:100A5000240883168700831207194E2D1430CB000B
:100A600030202415240883168700831207194E2D81
:100A70002808AC002708AB002608AA002508A90012
:100A8000113003178D0000308F0003131921083037
:100A9000B900FA30CB003020B90B492DA415240839
:100AA00083168700831287196F2D1430CB003020F6
:100AB000A415240883168700831287196F2D173019
:100AC00003178D0000308F00031319210830B9007F
:100AD000FA30CB003020B90B682D8A010028280895
:100AE0002C02031CB42D031D852D27082B02031C8B
:100AF000B42D031D852D26082A02031CB42D031DC9
:100B0000852D25082902031CB42D25082902F7008C
:100B10002A08F8002608031C260FF8022B08F90003
:100B20002708031C270FF9022C08FA002808031CC9
:100B3000280FFA027A08BC007908BB007808BA00CE
:100B40007708B900C4217A08B4007908B30078089E
:100B5000B2007708B1003408B0003308AF003208A3
:100B6000AE003108AD00E22D29082502F700260865
:100B7000F8002A08031C2A0FF8022708F9002B089E
:100B8000031C2B0FF9022808FA002C08031C2C0F59
:100B9000FA027A08BC007908BB007808BA00770826
:100BA000B900C4217A08B8007908B7007808B600FF
:100BB0007708B5003808B0003708AF003608AE0037
:100BC0003508AD003008BC002F08BB002E08BA0065
:100BD0002D08B9002308C0002208BF002108BE006C
:100BE0002008BD00DF217A08BC007908BB00780826
:100BF000BA007708B9003C08C0003B08BF003A08BB
:100C0000BE003908BD00C4012030C3007A30C200E4
:100C10008830C100A92A03180F2E031D4D2E30085D
:100C2000BC002F08BB002E08BA002D08B90023080D
:100C3000C0002208BF002108BE002008BD00DF213F
:100C40007A08BC007908BB007808BA007708B900B8
:100C50001E3003178D0000308F0003100A3003137D
:100C6000BD00EA22893084003C08C0003B08BF0078
:100C70003A08BE003908BD000230C100902B243074
:100C800003178D0000308F00031006300313BD00E2
:100C9000EA223230CB003020542E283003178D004A
:0C0CA00000308F00031319211E2D63008B
:02400E00393F38
:00000001FF
;PIC16F877A
;CRC=6E51  CREATED="22-May-24 04:01"
